:020000040000FA
:0400000069EF09F0AB
:10060000002D50726F78696D6173207461736B7324
:100610002D003229436164617374726172207461C8
:10062000736B0031295665722064617461206174B6
:1006300075616C00352950726F78696D6173207433
:1006400061736B73002D557365206F20736572693C
:10065000616C2D005465726D696E6520636F6D204D
:100660002A0033294D616973206F70636F657300D1
:10067000436F6E6669726D65202832290042656D90
:100680002076696E646F20616F004461746120613F
:100690007475616C3A004B68616E62616E21004551
:1006A00073636F6C68613A002A29566F6C746172CB
:1006B0000031290033290000000E4D6E100E4C6EE3
:1006C000000E4B6E000EC16E010E936E000E946E06
:1006D000000E956E000E966EF80E936E4FEC09F0BC
:1006E000CEEC08F05CEC09F0800E27EC09F07D0EF2
:1006F000086E060E096E02EC08F0C00E27EC09F039
:10070000960E086E060E096E02EC08F0070E026ED9
:10071000D00E016E3EEC08F0010E27EC09F094ECCF
:1007200009F0070E106E080E0F6E3CEC09F0000E7B
:100730004A6E9482020E026EBC0E016E3EEC08F010
:1007400094924A2A020E4A64A8EF03F0AAEF03F03B
:1007500099EF03F0000E816E000E836E12EC06F02E
:100760008FEC09F04C50011809E14D500218D8B433
:10077000BCEF03F0BEEF03F0AEEF03F08FEC09F037
:1007800001C04CF002C04DF0010E27EC09F0800EC4
:1007900027EC09F09F0E086E060E096E02EC08F0B9
:1007A000C00E27EC09F0230E086E060E096E02EC4F
:1007B00008F0900E27EC09F0120E086E060E096E76
:1007C00002EC08F0D00E27EC09F0620E086E060E5F
:1007D000096E02EC08F04DA6F0EF03F0F2EF03F023
:1007E000CFEF04F0C8EF04F012EC06F08FEC09F044
:1007F0004C50011809E14D500218D8B402EF04F032
:1008000004EF04F0C8EF04F08FEC09F001C04CF0E5
:1008100002C04DF0010E27EC09F0800E27EC09F024
:10082000340E086E060E096E02EC08F0C00E27ECBE
:1008300009F0A80E086E060E096E02EC08F04CAC2A
:1008400024EF04F026EF04F0C8EF04F0010E27ECCB
:1008500009F0800E27EC09F0010E086E060E096EF5
:1008600002EC08F0C00E27EC09F0B10E086E060E7F
:10087000096E02EC08F0000E4E6E120E4E24D96E78
:10088000DA6A000EDA222A0EDE18D8A44AEF04F043
:100890004CEF04F050EF04F00E0E4E6E59EF04F0E2
:1008A000120E4E24D96EDA6A000EDA22DF5012ECF4
:1008B00009F04E2A0D0E4E6460EF04F062EF04F072
:1008C0003DEF04F0900E27EC09F07A0E086E060E4C
:1008D000096E02EC08F0000E4E6E200E4E24D96E0A
:1008E000DA6A000EDA222A0EDE18D8A47AEF04F0B3
:1008F0007CEF04F080EF04F00E0E4E6E89EF04F0F2
:10090000200E4E24D96EDA6A000EDA22DF5012EC85
:1009100009F04E2A0D0E4E6490EF04F092EF04F0B1
:100920006DEF04F0D00E27EC09F0B40E086E060E41
:10093000096E02EC08F0000E4E6E2E0E4E24D96E9B
:10094000DA6A000EDA222A0EDE18D8A4AAEF04F022
:10095000ACEF04F0B0EF04F00E0E4E6EB9EF04F001
:100960002E0E4E24D96EDA6A000EDA22DF5012EC17
:1009700009F04E2A0D0E4E64C0EF04F0C2EF04F0F1
:100980009DEF04F0130E026E880E016E3EEC08F02F
:100990004CA0CDEF04F0CFEF04F0F4EF03F04CA641
:1009A000D4EF04F0D6EF04F0F3EF04F0010E27ECDF
:1009B00009F0800E27EC09F08A0E086E060E096E0B
:1009C00002EC08F0C00E27EC09F055EC07F0600EC1
:1009D000086E000E096E02EC08F00B0E026EB80EE7
:1009E000016E3EEC08F04CAEF8EF04F0FAEF04F0C4
:1009F000AEEF03F04B2A07EF06F012EC06F08FEC97
:100A000009F04C50011809E14D500218D8B40BEF11
:100A100005F00DEF05F007EF06F08FEC09F001C0CF
:100A20004CF002C04DF0010E27EC09F0800E27ECCF
:100A300009F0450E086E060E096E02EC08F0C00EB5
:100A400027EC09F0700E086E060E096E02EC08F035
:100A5000900E27EC09F0540E086E060E096E02EC9B
:100A600008F0D00E27EC09F0A80E086E060E096EED
:100A700002EC08F0948E949C4CAE41EF05F043EFED
:100A800005F007EF06F083EF05F0000E4E6E9EAA0C
:100A90004CEF05F04EEF05F079EF05F03C0E4E24DB
:100AA000D96EDA6A000EDA22FCEC08F0DF6E0D0E69
:100AB0004E18D8A45EEF05F060EF05F064EF05F086
:100AC0002A0E496E7AEF05F03C0E4E24D96EDA6A92
:100AD000000EDA222A0EDE18D8A471EF05F073EFAB
:100AE00005F07AEF05F02A0E496E0E0E4E6E7AEF83
:100AF00005F04E064E2A0D0E4E6481EF05F083EF91
:100B000005F047EF05F02A0E4918D8A48AEF05F042
:100B10008CEF05F045EF05F04B04D8A492EF05F0FB
:100B200094EF05F0B7EF05F0000E4E6E3C0E4E242C
:100B3000D96EDA6A000EDA22120E4E24E16EE26AF3
:100B4000000EE222DFCFE7FF3C0E4E24D96EDA6AB8
:100B5000000EDA22200EDF6E4E2A0D0E4E64B3EF29
:100B600005F0B5EF05F096EF05F007EF06F0020E81
:100B70004B18D8A4BEEF05F0C0EF05F0E3EF05F089
:100B8000000E4E6E3C0E4E24D96EDA6A000EDA224A
:100B9000200E4E24E16EE26A000EE222DFCFE7FF74
:100BA0003C0E4E24D96EDA6A000EDA22200EDF6E79
:100BB0004E2A0D0E4E64DFEF05F0E1EF05F0C2EFB7
:100BC00005F007EF06F0030E4B18D8A4EAEF05F086
:100BD000ECEF05F007EF06F0000E4E6E3C0E4E24D3
:100BE000D96EDA6A000EDA222E0E4E24E16EE26A27
:100BF000000EE222DFCFE7FF4E2A0D0E4E6403EF18
:100C000006F005EF06F0EEEF05F007EF06F04CA05A
:100C10000CEF06F00EEF06F0FDEF04F0AEEF03F080
:100C200000EF00F083CF06F00F0E9512000E0A6E53
:100C3000F80E93160AC001F0010E026E012A23EF8E
:100C400006F0D8900236012E21EF06F002509312E2
:100C5000070E81120AC001F0010E026E012A33EF65
:100C600006F0D8900236012E31EF06F00250FF0A4E
:100C70008116000E086E000E076E074A082A08BE8D
:100C80004BEF06F0085009E10A0E075CD8A04BEFC5
:100C900006F04DEF06F03DEF06F0000E096E09C0BC
:100CA00001F0010E026E012A58EF06F0D8900236CC
:100CB000012E56EF06F0025083140009D8A463EF0A
:100CC00006F065EF06F07DEF06F00A50040DF350D4
:100CD0000924016E010E026E000E036E012A74EFEC
:100CE00006F0D89002360336012E71EF06F002505E
:100CF0005B1203505C1297EF06F00A50040DF3509C
:100D00000924016E010E026E000E036E012A8CEFA3
:100D100006F0D89002360336012E89EF06F0021C49
:100D2000046E031C056E04505B1605505C16092A00
:100D3000030E09649EEF06F0A0EF06F04FEF06F0F9
:100D40000A2A020E0A64A7EF06F0A9EF06F018EFD0
:100D500006F05B50591807E15C505A18D8A4B3EF5D
:100D600006F0B5EF06F0B8EF06F05F06BEEF06F04E
:100D70000A0E5F6E5BC059F05CC05AF05F50D8A499
:100D8000C4EF06F0C6EF06F0CAEF06F059C05DF0FA
:100D90005AC05EF006C083FF000E956E1200000E72
:100DA0000A6E08BED8EF06F0D6EF06F0E2EF06F0C6
:100DB000081E071E061E056C000E062207220822CA
:100DC000010E0A6E04BEE9EF06F0E7EF06F0F3EF5E
:100DD00006F0041E031E021E016C000E02220322F6
:100DE0000422010E0A1A000E0B6E000E0C6E000E8D
:100DF0000D6E000E0E6E0550061007100810D8B4C8
:100E000004EF07F006EF07F03CEF07F0010E096E64
:100E100010EF07F0D8900536063607360836092A4F
:100E200008AE15EF07F017EF07F00AEF07F0D890BC
:100E30000B360C360D360E360550015C0650025846
:100E40000750035808500458D8A029EF07F02BEF9B
:100E500007F034EF07F00550015E0650025A0750C4
:100E6000035A0850045A0B80D890083207320632D1
:100E70000532092E17EF07F00A50D8B442EF07F0F9
:100E800044EF07F04CEF07F00E1E0D1E0C1E0B6C0E
:100E9000000E0C220D220E220BC001F00CC002F03D
:100EA0000DC003F00EC004F012007CEC09F0D00E6F
:100EB000A0EC08F0000EA0EC08F07CEC09F0D10EDC
:100EC000A0EC08F0010EC1EC07F07F0B0A6E3A0EA1
:100ED000546E0A5084EC09F0556E0A508AEC09F001
:100EE000566E000E576E010EC1EC07F07F0B0A6EB6
:100EF0003A0E516E0A5084EC09F0526E0A508AEC98
:100F000009F0536E010EC1EC07F03F0B0A6E0A5058
:100F100084EC09F04F6E0A508AEC09F0506E010E15
:100F2000C1EC07F0010EC1EC07F03F0B0A6E0A504E
:100F300084EC09F0606E0A508AEC09F0616E010ED3
:100F4000C1EC07F01F0B0A6E2F0E626E0A5084EC84
:100F500009F0636E0A508AEC09F0646E000EC1EC71
:100F600007F00A6E2F0E656E0A5084EC09F0666E6B
:100F70000A508AEC09F0676E000E686E74EC09F096
:100F80001200076E000E086E829694888288000E0A
:100F9000096E828670EC08F009500708056E82B869
:100FA000D4EF07F0D8EF07F0066A062AD9EF07F06A
:100FB000066A052ADEEF07F0D8900636052EDCEF2C
:100FC00007F0065008128296092A070E0964EBEF13
:100FD00007F0EDEF07F0C9EF07F094980750D8B489
:100FE000F4EF07F0F6EF07F0F9EF07F08298FAEF69
:100FF00007F0828870EC08F0828670EC08F0829628
:1010000008501200000E0C6E1FEF08F00C50082460
:101010000A6E000E09200B6E0AC0F6FF0BC0F7FF28
:10102000F86A050EF76403D00800F55005D0F6CF36
:10103000E9FFF7CFEAFFEF5012EC09F00C2A0C5051
:1010400008240A6E000E09200B6E0AC0F6FF0BC0C2
:10105000F7FFF86A050EF76403D00800F55005D0D5
:10106000F6CFE9FFF7CFEAFFEF500009D8A43BEF36
:1010700008F03DEF08F006EF08F01200000E046ED5
:10108000000E036E64EF08F0000E056E280E056476
:101090004CEF08F04EEF08F050EF08F062EF08F068
:1010A000000E066E020E066458EF08F05AEF08F0C4
:1010B0005CEF08F05FEF08F0062A52EF08F0052A0F
:1010C00046EF08F0034A042A0150035C025004581A
:1010D000D8A06DEF08F06FEF08F044EF08F01200B1
:1010E000000E026E000E016E000E036E280E0364E9
:1010F0007CEF08F07EEF08F080EF08F092EF08F048
:10110000000E046E020E046488EF08F08AEF08F007
:101110008CEF08F08FEF08F0042A82EF08F0032A22
:1011200076EF08F0014A022A025009E1050E015C3F
:10113000D8A09DEF08F09FEF08F074EF08F01200C0
:10114000076E8296000E086E08500708056E07C0ED
:1011500006F0052AAEEF08F0D8900632052EACEF67
:1011600008F0010E0616063A82500618EF0B061814
:10117000826E828670EC08F08296082A070E086458
:10118000C4EF08F0C6EF08F0A4EF08F0828870EC16
:1011900008F0828670EC08F08296120084928494A3
:1011A000000E026E140E016E3EEC08F08482380EC2
:1011B00027EC09F0000E026E050E016E3EEC08F001
:1011C000380E27EC09F0000E026E010E016E3EECA7
:1011D00008F0380E27EC09F0080E27EC09F00F0E86
:1011E00027EC09F0010E27EC09F0380E27EC09F086
:1011F000800E27EC09F01200000E016EABA203EF87
:1012000009F005EF09F007EF09F0AB98AB889EAA4B
:101210000CEF09F00EEF09F010EF09F0AECF01F07E
:1012200001501200076E8482075099EC09F0848403
:10123000000E026E030E016E3EEC08F08492000E6A
:10124000026E030E016E3EEC08F084821200076EFF
:101250008482075099EC09F08494000E026E030E0C
:10126000016E3EEC08F08492000E026E030E016ED9
:101270003EEC08F084821200480E016EE80E026E09
:10128000010E036E000E046E0FC005F010C006F0D4
:10129000076A086ACFEC06F00104CB6E12002C0E30
:1012A000AC6E900EAB6E080EB86E000EB06E220ED5
:1012B000AF6E948C948E12009494030ECA12CA845A
:1012C0000C0EBD6E000E106E640E0F6E3CEC09F03D
:1012D000120000EE4FF01B0EEE6AE806FDE1000E74
:1012E000F86E00015CEF03F08286829870EC08F0E3
:1012F000828870EC08F012008286828870EC08F018
:10130000829870EC08F01200016E01380F0B0F0B81
:10131000300F1200016E01500F0B300F12005DC034
:1013200001F05EC002F01200070E93160F0E951228
:0A1330001200016E01C083FF1200DD
:020000040020DA
:08000000FFFFFFFFFFFFFFFF00
:020000040030CA
:0E000000FF027100FF8380FF0FC00FE00F4072
:00000001FF
